{
  "_format": "hh-sol-artifact-1",
  "contractName": "NFTContract",
  "sourceName": "contracts/NFTContract.sol",
  "abi": [
    {
      "inputs": [
        {
          "internalType": "contract ERC20Creation",
          "name": "_erc20Address",
          "type": "address"
        }
      ],
      "stateMutability": "nonpayable",
      "type": "constructor"
    },
    {
      "anonymous": false,
      "inputs": [
        {
          "indexed": true,
          "internalType": "address",
          "name": "owner",
          "type": "address"
        },
        {
          "indexed": true,
          "internalType": "address",
          "name": "approved",
          "type": "address"
        },
        {
          "indexed": true,
          "internalType": "uint256",
          "name": "tokenId",
          "type": "uint256"
        }
      ],
      "name": "Approval",
      "type": "event"
    },
    {
      "anonymous": false,
      "inputs": [
        {
          "indexed": true,
          "internalType": "address",
          "name": "owner",
          "type": "address"
        },
        {
          "indexed": true,
          "internalType": "address",
          "name": "operator",
          "type": "address"
        },
        {
          "indexed": false,
          "internalType": "bool",
          "name": "approved",
          "type": "bool"
        }
      ],
      "name": "ApprovalForAll",
      "type": "event"
    },
    {
      "anonymous": false,
      "inputs": [
        {
          "indexed": true,
          "internalType": "address",
          "name": "from",
          "type": "address"
        },
        {
          "indexed": true,
          "internalType": "address",
          "name": "to",
          "type": "address"
        },
        {
          "indexed": true,
          "internalType": "uint256",
          "name": "tokenId",
          "type": "uint256"
        }
      ],
      "name": "Transfer",
      "type": "event"
    },
    {
      "inputs": [
        {
          "internalType": "address",
          "name": "to",
          "type": "address"
        },
        {
          "internalType": "uint256",
          "name": "tokenId",
          "type": "uint256"
        }
      ],
      "name": "approve",
      "outputs": [],
      "stateMutability": "nonpayable",
      "type": "function"
    },
    {
      "inputs": [
        {
          "internalType": "address",
          "name": "owner",
          "type": "address"
        }
      ],
      "name": "balanceOf",
      "outputs": [
        {
          "internalType": "uint256",
          "name": "",
          "type": "uint256"
        }
      ],
      "stateMutability": "view",
      "type": "function"
    },
    {
      "inputs": [
        {
          "internalType": "uint256",
          "name": "_tokenId",
          "type": "uint256"
        },
        {
          "internalType": "uint256",
          "name": "_amount",
          "type": "uint256"
        }
      ],
      "name": "buyToken",
      "outputs": [],
      "stateMutability": "nonpayable",
      "type": "function"
    },
    {
      "inputs": [
        {
          "internalType": "uint256",
          "name": "_tokenId",
          "type": "uint256"
        },
        {
          "internalType": "uint256",
          "name": "_amount",
          "type": "uint256"
        }
      ],
      "name": "changeTokenPrice",
      "outputs": [],
      "stateMutability": "nonpayable",
      "type": "function"
    },
    {
      "inputs": [
        {
          "internalType": "uint256",
          "name": "_tokenId",
          "type": "uint256"
        }
      ],
      "name": "checkTokenExists",
      "outputs": [
        {
          "internalType": "bool",
          "name": "",
          "type": "bool"
        }
      ],
      "stateMutability": "view",
      "type": "function"
    },
    {
      "inputs": [
        {
          "internalType": "uint256",
          "name": "_tokenId",
          "type": "uint256"
        },
        {
          "internalType": "uint256",
          "name": "_amount",
          "type": "uint256"
        }
      ],
      "name": "createNft",
      "outputs": [],
      "stateMutability": "nonpayable",
      "type": "function"
    },
    {
      "inputs": [],
      "name": "erc20Address",
      "outputs": [
        {
          "internalType": "contract ERC20Creation",
          "name": "",
          "type": "address"
        }
      ],
      "stateMutability": "view",
      "type": "function"
    },
    {
      "inputs": [
        {
          "internalType": "uint256",
          "name": "tokenId",
          "type": "uint256"
        }
      ],
      "name": "getApproved",
      "outputs": [
        {
          "internalType": "address",
          "name": "",
          "type": "address"
        }
      ],
      "stateMutability": "view",
      "type": "function"
    },
    {
      "inputs": [
        {
          "internalType": "uint256",
          "name": "_tokenId",
          "type": "uint256"
        }
      ],
      "name": "getCurrentPrice",
      "outputs": [
        {
          "internalType": "uint256",
          "name": "",
          "type": "uint256"
        }
      ],
      "stateMutability": "view",
      "type": "function"
    },
    {
      "inputs": [
        {
          "internalType": "uint256",
          "name": "_tokenId",
          "type": "uint256"
        }
      ],
      "name": "getTokenOwner",
      "outputs": [
        {
          "internalType": "address",
          "name": "",
          "type": "address"
        }
      ],
      "stateMutability": "view",
      "type": "function"
    },
    {
      "inputs": [
        {
          "internalType": "address",
          "name": "owner",
          "type": "address"
        },
        {
          "internalType": "address",
          "name": "operator",
          "type": "address"
        }
      ],
      "name": "isApprovedForAll",
      "outputs": [
        {
          "internalType": "bool",
          "name": "",
          "type": "bool"
        }
      ],
      "stateMutability": "view",
      "type": "function"
    },
    {
      "inputs": [
        {
          "internalType": "address",
          "name": "to",
          "type": "address"
        }
      ],
      "name": "mint",
      "outputs": [],
      "stateMutability": "nonpayable",
      "type": "function"
    },
    {
      "inputs": [],
      "name": "name",
      "outputs": [
        {
          "internalType": "string",
          "name": "",
          "type": "string"
        }
      ],
      "stateMutability": "view",
      "type": "function"
    },
    {
      "inputs": [
        {
          "internalType": "uint256",
          "name": "tokenId",
          "type": "uint256"
        }
      ],
      "name": "ownerOf",
      "outputs": [
        {
          "internalType": "address",
          "name": "",
          "type": "address"
        }
      ],
      "stateMutability": "view",
      "type": "function"
    },
    {
      "inputs": [
        {
          "internalType": "address",
          "name": "from",
          "type": "address"
        },
        {
          "internalType": "address",
          "name": "to",
          "type": "address"
        },
        {
          "internalType": "uint256",
          "name": "tokenId",
          "type": "uint256"
        }
      ],
      "name": "safeTransferFrom",
      "outputs": [],
      "stateMutability": "nonpayable",
      "type": "function"
    },
    {
      "inputs": [
        {
          "internalType": "address",
          "name": "from",
          "type": "address"
        },
        {
          "internalType": "address",
          "name": "to",
          "type": "address"
        },
        {
          "internalType": "uint256",
          "name": "tokenId",
          "type": "uint256"
        },
        {
          "internalType": "bytes",
          "name": "_data",
          "type": "bytes"
        }
      ],
      "name": "safeTransferFrom",
      "outputs": [],
      "stateMutability": "nonpayable",
      "type": "function"
    },
    {
      "inputs": [
        {
          "internalType": "address",
          "name": "operator",
          "type": "address"
        },
        {
          "internalType": "bool",
          "name": "approved",
          "type": "bool"
        }
      ],
      "name": "setApprovalForAll",
      "outputs": [],
      "stateMutability": "nonpayable",
      "type": "function"
    },
    {
      "inputs": [
        {
          "internalType": "bytes4",
          "name": "interfaceId",
          "type": "bytes4"
        }
      ],
      "name": "supportsInterface",
      "outputs": [
        {
          "internalType": "bool",
          "name": "",
          "type": "bool"
        }
      ],
      "stateMutability": "view",
      "type": "function"
    },
    {
      "inputs": [],
      "name": "symbol",
      "outputs": [
        {
          "internalType": "string",
          "name": "",
          "type": "string"
        }
      ],
      "stateMutability": "view",
      "type": "function"
    },
    {
      "inputs": [
        {
          "internalType": "uint256",
          "name": "tokenId",
          "type": "uint256"
        }
      ],
      "name": "tokenURI",
      "outputs": [
        {
          "internalType": "string",
          "name": "",
          "type": "string"
        }
      ],
      "stateMutability": "view",
      "type": "function"
    },
    {
      "inputs": [
        {
          "internalType": "address",
          "name": "from",
          "type": "address"
        },
        {
          "internalType": "address",
          "name": "to",
          "type": "address"
        },
        {
          "internalType": "uint256",
          "name": "tokenId",
          "type": "uint256"
        }
      ],
      "name": "transferFrom",
      "outputs": [],
      "stateMutability": "nonpayable",
      "type": "function"
    }
  ],
  "bytecode": "0x608060405260016006553480156200001657600080fd5b5060405162002f5b38038062002f5b83398181016040528101906200003c9190620001eb565b6040518060400160405280600881526020017f4e4654546f6b656e0000000000000000000000000000000000000000000000008152506040518060400160405280600381526020017f4e465400000000000000000000000000000000000000000000000000000000008152508160009080519060200190620000c092919062000124565b508060019080519060200190620000d992919062000124565b50505080600960006101000a81548173ffffffffffffffffffffffffffffffffffffffff021916908373ffffffffffffffffffffffffffffffffffffffff16021790555050620002de565b82805462000132906200025f565b90600052602060002090601f016020900481019282620001565760008555620001a2565b82601f106200017157805160ff1916838001178555620001a2565b82800160010185558215620001a2579182015b82811115620001a157825182559160200191906001019062000184565b5b509050620001b19190620001b5565b5090565b5b80821115620001d0576000816000905550600101620001b6565b5090565b600081519050620001e581620002c4565b92915050565b600060208284031215620001fe57600080fd5b60006200020e84828501620001d4565b91505092915050565b600062000224826200023f565b9050919050565b6000620002388262000217565b9050919050565b600073ffffffffffffffffffffffffffffffffffffffff82169050919050565b600060028204905060018216806200027857607f821691505b602082108114156200028f576200028e62000295565b5b50919050565b7f4e487b7100000000000000000000000000000000000000000000000000000000600052602260045260246000fd5b620002cf816200022b565b8114620002db57600080fd5b50565b612c6d80620002ee6000396000f3fe608060405234801561001057600080fd5b50600436106101375760003560e01c80636352211e116100b8578063a5cd761f1161007c578063a5cd761f14610336578063b88d4fde14610366578063bfd5621e14610382578063c55d0f56146103b2578063c87b56dd146103e2578063e985e9c51461041257610137565b80636352211e146102805780636a627842146102b057806370a08231146102cc57806395d89b41146102fc578063a22cb4651461031a57610137565b80631dff5053116100ff5780631dff5053146101f257806323b872dd1461020e578063276184ae1461022a57806342842e0e1461024857806362e8e8ac1461026457610137565b806301ffc9a71461013c578063057466ea1461016c57806306fdde0314610188578063081812fc146101a6578063095ea7b3146101d6575b600080fd5b61015660048036038101906101519190611e61565b610442565b60405161016391906125f6565b60405180910390f35b61018660048036038101906101819190611f05565b610524565b005b610190610785565b60405161019d919061262c565b60405180910390f35b6101c060048036038101906101bb9190611eb3565b610817565b6040516101cd9190612566565b60405180910390f35b6101f060048036038101906101eb9190611dfc565b61089c565b005b61020c60048036038101906102079190611f05565b6109b4565b005b61022860048036038101906102239190611cf6565b610a27565b005b610232610a87565b60405161023f9190612611565b60405180910390f35b610262600480360381019061025d9190611cf6565b610aad565b005b61027e60048036038101906102799190611f05565b610acd565b005b61029a60048036038101906102959190611eb3565b610b8a565b6040516102a79190612566565b60405180910390f35b6102ca60048036038101906102c59190611c91565b610c3c565b005b6102e660048036038101906102e19190611c91565b610c63565b6040516102f3919061280e565b60405180910390f35b610304610d1b565b604051610311919061262c565b60405180910390f35b610334600480360381019061032f9190611dc0565b610dad565b005b610350600480360381019061034b9190611eb3565b610f2e565b60405161035d9190612566565b60405180910390f35b610380600480360381019061037b9190611d45565b610f45565b005b61039c60048036038101906103979190611eb3565b610fa7565b6040516103a991906125f6565b60405180910390f35b6103cc60048036038101906103c79190611eb3565b610fbe565b6040516103d9919061280e565b60405180910390f35b6103fc60048036038101906103f79190611eb3565b610fed565b604051610409919061262c565b60405180910390f35b61042c60048036038101906104279190611cba565b611094565b60405161043991906125f6565b60405180910390f35b60007f80ac58cd000000000000000000000000000000000000000000000000000000007bffffffffffffffffffffffffffffffffffffffffffffffffffffffff1916827bffffffffffffffffffffffffffffffffffffffffffffffffffffffff1916148061050d57507f5b5e139f000000000000000000000000000000000000000000000000000000007bffffffffffffffffffffffffffffffffffffffffffffffffffffffff1916827bffffffffffffffffffffffffffffffffffffffffffffffffffffffff1916145b8061051d575061051c82611128565b5b9050919050565b600073ffffffffffffffffffffffffffffffffffffffff163373ffffffffffffffffffffffffffffffffffffffff16141561055e57600080fd5b61056782611192565b61057057600080fd5b6008600083815260200190815260200160002054811161058f57600080fd5b600960009054906101000a900473ffffffffffffffffffffffffffffffffffffffff1673ffffffffffffffffffffffffffffffffffffffff166370a08231336040518263ffffffff1660e01b81526004016105ea9190612566565b60206040518083038186803b15801561060257600080fd5b505afa158015610616573d6000803e3d6000fd5b505050506040513d601f19601f8201168201806040525081019061063a9190611edc565b81101561064657600080fd5b600061065183610b8a565b9050600073ffffffffffffffffffffffffffffffffffffffff168173ffffffffffffffffffffffffffffffffffffffff16141580156106bc57503373ffffffffffffffffffffffffffffffffffffffff168173ffffffffffffffffffffffffffffffffffffffff1614155b6106c557600080fd5b6106d08133856111fe565b600960009054906101000a900473ffffffffffffffffffffffffffffffffffffffff1673ffffffffffffffffffffffffffffffffffffffff1663a9059cbb33846040518363ffffffff1660e01b815260040161072d9291906125cd565b602060405180830381600087803b15801561074757600080fd5b505af115801561075b573d6000803e3d6000fd5b505050506040513d601f19601f8201168201806040525081019061077f9190611e38565b50505050565b60606000805461079490612a62565b80601f01602080910402602001604051908101604052809291908181526020018280546107c090612a62565b801561080d5780601f106107e25761010080835404028352916020019161080d565b820191906000526020600020905b8154815290600101906020018083116107f057829003601f168201915b5050505050905090565b600061082282611192565b610861576040517f08c379a00000000000000000000000000000000000000000000000000000000081526004016108589061276e565b60405180910390fd5b6004600083815260200190815260200160002060009054906101000a900473ffffffffffffffffffffffffffffffffffffffff169050919050565b60006108a782610b8a565b90508073ffffffffffffffffffffffffffffffffffffffff168373ffffffffffffffffffffffffffffffffffffffff161415610918576040517f08c379a000000000000000000000000000000000000000000000000000000000815260040161090f906127ce565b60405180910390fd5b8073ffffffffffffffffffffffffffffffffffffffff1661093761145a565b73ffffffffffffffffffffffffffffffffffffffff16148061096657506109658161096061145a565b611094565b5b6109a5576040517f08c379a000000000000000000000000000000000000000000000000000000000815260040161099c906126ee565b60405180910390fd5b6109af8383611462565b505050565b600073ffffffffffffffffffffffffffffffffffffffff163373ffffffffffffffffffffffffffffffffffffffff1614156109ee57600080fd5b600081116109fb57600080fd5b610a06600654611192565b15610a1057600080fd5b610a1933610c3c565b610a238282610acd565b5050565b610a38610a3261145a565b8261151b565b610a77576040517f08c379a0000000000000000000000000000000000000000000000000000000008152600401610a6e906127ee565b60405180910390fd5b610a828383836111fe565b505050565b600960009054906101000a900473ffffffffffffffffffffffffffffffffffffffff1681565b610ac883838360405180602001604052806000815250610f45565b505050565b600073ffffffffffffffffffffffffffffffffffffffff163373ffffffffffffffffffffffffffffffffffffffff161415610b0757600080fd5b610b1082611192565b610b1957600080fd5b6000610b26600654610b8a565b90503373ffffffffffffffffffffffffffffffffffffffff168173ffffffffffffffffffffffffffffffffffffffff1614610b6057600080fd5b60008211610b6d57600080fd5b816008600085815260200190815260200160002081905550505050565b6000806002600084815260200190815260200160002060009054906101000a900473ffffffffffffffffffffffffffffffffffffffff169050600073ffffffffffffffffffffffffffffffffffffffff168173ffffffffffffffffffffffffffffffffffffffff161415610c33576040517f08c379a0000000000000000000000000000000000000000000000000000000008152600401610c2a9061272e565b60405180910390fd5b80915050919050565b610c48816006546115f9565b60066000815480929190610c5b90612a94565b919050555050565b60008073ffffffffffffffffffffffffffffffffffffffff168273ffffffffffffffffffffffffffffffffffffffff161415610cd4576040517f08c379a0000000000000000000000000000000000000000000000000000000008152600401610ccb9061270e565b60405180910390fd5b600360008373ffffffffffffffffffffffffffffffffffffffff1673ffffffffffffffffffffffffffffffffffffffff168152602001908152602001600020549050919050565b606060018054610d2a90612a62565b80601f0160208091040260200160405190810160405280929190818152602001828054610d5690612a62565b8015610da35780601f10610d7857610100808354040283529160200191610da3565b820191906000526020600020905b815481529060010190602001808311610d8657829003601f168201915b5050505050905090565b610db561145a565b73ffffffffffffffffffffffffffffffffffffffff168273ffffffffffffffffffffffffffffffffffffffff161415610e23576040517f08c379a0000000000000000000000000000000000000000000000000000000008152600401610e1a906126ae565b60405180910390fd5b8060056000610e3061145a565b73ffffffffffffffffffffffffffffffffffffffff1673ffffffffffffffffffffffffffffffffffffffff16815260200190815260200160002060008473ffffffffffffffffffffffffffffffffffffffff1673ffffffffffffffffffffffffffffffffffffffff16815260200190815260200160002060006101000a81548160ff0219169083151502179055508173ffffffffffffffffffffffffffffffffffffffff16610edd61145a565b73ffffffffffffffffffffffffffffffffffffffff167f17307eab39ab6107e8899845ad3d59bd9653f200f220920489ca2b5937696c3183604051610f2291906125f6565b60405180910390a35050565b600080610f3a83610b8a565b905080915050919050565b610f56610f5061145a565b8361151b565b610f95576040517f08c379a0000000000000000000000000000000000000000000000000000000008152600401610f8c906127ee565b60405180910390fd5b610fa1848484846117c7565b50505050565b600080610fb383611192565b905080915050919050565b6000610fc982611192565b610fd257600080fd5b60086000838152602001908152602001600020549050919050565b6060610ff882611192565b611037576040517f08c379a000000000000000000000000000000000000000000000000000000000815260040161102e906127ae565b60405180910390fd5b6000611041611823565b90506000815111611061576040518060200160405280600081525061108c565b8061106b8461183a565b60405160200161107c929190612542565b6040516020818303038152906040525b915050919050565b6000600560008473ffffffffffffffffffffffffffffffffffffffff1673ffffffffffffffffffffffffffffffffffffffff16815260200190815260200160002060008373ffffffffffffffffffffffffffffffffffffffff1673ffffffffffffffffffffffffffffffffffffffff16815260200190815260200160002060009054906101000a900460ff16905092915050565b60007f01ffc9a7000000000000000000000000000000000000000000000000000000007bffffffffffffffffffffffffffffffffffffffffffffffffffffffff1916827bffffffffffffffffffffffffffffffffffffffffffffffffffffffff1916149050919050565b60008073ffffffffffffffffffffffffffffffffffffffff166002600084815260200190815260200160002060009054906101000a900473ffffffffffffffffffffffffffffffffffffffff1673ffffffffffffffffffffffffffffffffffffffff1614159050919050565b8273ffffffffffffffffffffffffffffffffffffffff1661121e82610b8a565b73ffffffffffffffffffffffffffffffffffffffff1614611274576040517f08c379a000000000000000000000000000000000000000000000000000000000815260040161126b9061278e565b60405180910390fd5b600073ffffffffffffffffffffffffffffffffffffffff168273ffffffffffffffffffffffffffffffffffffffff1614156112e4576040517f08c379a00000000000000000000000000000000000000000000000000000000081526004016112db9061268e565b60405180910390fd5b6112ef8383836119e7565b6112fa600082611462565b6001600360008573ffffffffffffffffffffffffffffffffffffffff1673ffffffffffffffffffffffffffffffffffffffff168152602001908152602001600020600082825461134a9190612954565b925050819055506001600360008473ffffffffffffffffffffffffffffffffffffffff1673ffffffffffffffffffffffffffffffffffffffff16815260200190815260200160002060008282546113a191906128cd565b92505081905550816002600083815260200190815260200160002060006101000a81548173ffffffffffffffffffffffffffffffffffffffff021916908373ffffffffffffffffffffffffffffffffffffffff160217905550808273ffffffffffffffffffffffffffffffffffffffff168473ffffffffffffffffffffffffffffffffffffffff167fddf252ad1be2c89b69c2b068fc378daa952ba7f163c4a11628f55a4df523b3ef60405160405180910390a4505050565b600033905090565b816004600083815260200190815260200160002060006101000a81548173ffffffffffffffffffffffffffffffffffffffff021916908373ffffffffffffffffffffffffffffffffffffffff160217905550808273ffffffffffffffffffffffffffffffffffffffff166114d583610b8a565b73ffffffffffffffffffffffffffffffffffffffff167f8c5be1e5ebec7d5bd14f71427d1e84f3dd0314c0f7b2291e5b200ac8c7c3b92560405160405180910390a45050565b600061152682611192565b611565576040517f08c379a000000000000000000000000000000000000000000000000000000000815260040161155c906126ce565b60405180910390fd5b600061157083610b8a565b90508073ffffffffffffffffffffffffffffffffffffffff168473ffffffffffffffffffffffffffffffffffffffff1614806115df57508373ffffffffffffffffffffffffffffffffffffffff166115c784610817565b73ffffffffffffffffffffffffffffffffffffffff16145b806115f057506115ef8185611094565b5b91505092915050565b600073ffffffffffffffffffffffffffffffffffffffff168273ffffffffffffffffffffffffffffffffffffffff161415611669576040517f08c379a00000000000000000000000000000000000000000000000000000000081526004016116609061274e565b60405180910390fd5b61167281611192565b156116b2576040517f08c379a00000000000000000000000000000000000000000000000000000000081526004016116a99061266e565b60405180910390fd5b6116be600083836119e7565b6001600360008473ffffffffffffffffffffffffffffffffffffffff1673ffffffffffffffffffffffffffffffffffffffff168152602001908152602001600020600082825461170e91906128cd565b92505081905550816002600083815260200190815260200160002060006101000a81548173ffffffffffffffffffffffffffffffffffffffff021916908373ffffffffffffffffffffffffffffffffffffffff160217905550808273ffffffffffffffffffffffffffffffffffffffff16600073ffffffffffffffffffffffffffffffffffffffff167fddf252ad1be2c89b69c2b068fc378daa952ba7f163c4a11628f55a4df523b3ef60405160405180910390a45050565b6117d28484846111fe565b6117de848484846119ec565b61181d576040517f08c379a00000000000000000000000000000000000000000000000000000000081526004016118149061264e565b60405180910390fd5b50505050565b606060405180602001604052806000815250905090565b60606000821415611882576040518060400160405280600181526020017f300000000000000000000000000000000000000000000000000000000000000081525090506119e2565b600082905060005b600082146118b457808061189d90612a94565b915050600a826118ad9190612923565b915061188a565b60008167ffffffffffffffff8111156118f6577f4e487b7100000000000000000000000000000000000000000000000000000000600052604160045260246000fd5b6040519080825280601f01601f1916602001820160405280156119285781602001600182028036833780820191505090505b5090505b600085146119db576001826119419190612954565b9150600a856119509190612add565b603061195c91906128cd565b60f81b818381518110611998577f4e487b7100000000000000000000000000000000000000000000000000000000600052603260045260246000fd5b60200101907effffffffffffffffffffffffffffffffffffffffffffffffffffffffffffff1916908160001a905350600a856119d49190612923565b945061192c565b8093505050505b919050565b505050565b6000611a0d8473ffffffffffffffffffffffffffffffffffffffff16611b83565b15611b76578373ffffffffffffffffffffffffffffffffffffffff1663150b7a02611a3661145a565b8786866040518563ffffffff1660e01b8152600401611a589493929190612581565b602060405180830381600087803b158015611a7257600080fd5b505af1925050508015611aa357506040513d601f19601f82011682018060405250810190611aa09190611e8a565b60015b611b26573d8060008114611ad3576040519150601f19603f3d011682016040523d82523d6000602084013e611ad8565b606091505b50600081511415611b1e576040517f08c379a0000000000000000000000000000000000000000000000000000000008152600401611b159061264e565b60405180910390fd5b805181602001fd5b63150b7a0260e01b7bffffffffffffffffffffffffffffffffffffffffffffffffffffffff1916817bffffffffffffffffffffffffffffffffffffffffffffffffffffffff191614915050611b7b565b600190505b949350505050565b600080823b905060008111915050919050565b6000611ba9611ba48461285a565b612829565b905082815260208101848484011115611bc157600080fd5b611bcc848285612a20565b509392505050565b600081359050611be381612bdb565b92915050565b600081359050611bf881612bf2565b92915050565b600081519050611c0d81612bf2565b92915050565b600081359050611c2281612c09565b92915050565b600081519050611c3781612c09565b92915050565b600082601f830112611c4e57600080fd5b8135611c5e848260208601611b96565b91505092915050565b600081359050611c7681612c20565b92915050565b600081519050611c8b81612c20565b92915050565b600060208284031215611ca357600080fd5b6000611cb184828501611bd4565b91505092915050565b60008060408385031215611ccd57600080fd5b6000611cdb85828601611bd4565b9250506020611cec85828601611bd4565b9150509250929050565b600080600060608486031215611d0b57600080fd5b6000611d1986828701611bd4565b9350506020611d2a86828701611bd4565b9250506040611d3b86828701611c67565b9150509250925092565b60008060008060808587031215611d5b57600080fd5b6000611d6987828801611bd4565b9450506020611d7a87828801611bd4565b9350506040611d8b87828801611c67565b925050606085013567ffffffffffffffff811115611da857600080fd5b611db487828801611c3d565b91505092959194509250565b60008060408385031215611dd357600080fd5b6000611de185828601611bd4565b9250506020611df285828601611be9565b9150509250929050565b60008060408385031215611e0f57600080fd5b6000611e1d85828601611bd4565b9250506020611e2e85828601611c67565b9150509250929050565b600060208284031215611e4a57600080fd5b6000611e5884828501611bfe565b91505092915050565b600060208284031215611e7357600080fd5b6000611e8184828501611c13565b91505092915050565b600060208284031215611e9c57600080fd5b6000611eaa84828501611c28565b91505092915050565b600060208284031215611ec557600080fd5b6000611ed384828501611c67565b91505092915050565b600060208284031215611eee57600080fd5b6000611efc84828501611c7c565b91505092915050565b60008060408385031215611f1857600080fd5b6000611f2685828601611c67565b9250506020611f3785828601611c67565b9150509250929050565b611f4a81612988565b82525050565b611f598161299a565b82525050565b6000611f6a8261288a565b611f7481856128a0565b9350611f84818560208601612a2f565b611f8d81612bca565b840191505092915050565b611fa1816129fc565b82525050565b6000611fb282612895565b611fbc81856128b1565b9350611fcc818560208601612a2f565b611fd581612bca565b840191505092915050565b6000611feb82612895565b611ff581856128c2565b9350612005818560208601612a2f565b80840191505092915050565b600061201e6032836128b1565b91507f4552433732313a207472616e7366657220746f206e6f6e20455243373231526560008301527f63656976657220696d706c656d656e74657200000000000000000000000000006020830152604082019050919050565b6000612084601c836128b1565b91507f4552433732313a20746f6b656e20616c7265616479206d696e746564000000006000830152602082019050919050565b60006120c46024836128b1565b91507f4552433732313a207472616e7366657220746f20746865207a65726f2061646460008301527f72657373000000000000000000000000000000000000000000000000000000006020830152604082019050919050565b600061212a6019836128b1565b91507f4552433732313a20617070726f766520746f2063616c6c6572000000000000006000830152602082019050919050565b600061216a602c836128b1565b91507f4552433732313a206f70657261746f7220717565727920666f72206e6f6e657860008301527f697374656e7420746f6b656e00000000000000000000000000000000000000006020830152604082019050919050565b60006121d06038836128b1565b91507f4552433732313a20617070726f76652063616c6c6572206973206e6f74206f7760008301527f6e6572206e6f7220617070726f76656420666f7220616c6c00000000000000006020830152604082019050919050565b6000612236602a836128b1565b91507f4552433732313a2062616c616e636520717565727920666f7220746865207a6560008301527f726f2061646472657373000000000000000000000000000000000000000000006020830152604082019050919050565b600061229c6029836128b1565b91507f4552433732313a206f776e657220717565727920666f72206e6f6e657869737460008301527f656e7420746f6b656e00000000000000000000000000000000000000000000006020830152604082019050919050565b60006123026020836128b1565b91507f4552433732313a206d696e7420746f20746865207a65726f20616464726573736000830152602082019050919050565b6000612342602c836128b1565b91507f4552433732313a20617070726f76656420717565727920666f72206e6f6e657860008301527f697374656e7420746f6b656e00000000000000000000000000000000000000006020830152604082019050919050565b60006123a86029836128b1565b91507f4552433732313a207472616e73666572206f6620746f6b656e2074686174206960008301527f73206e6f74206f776e00000000000000000000000000000000000000000000006020830152604082019050919050565b600061240e602f836128b1565b91507f4552433732314d657461646174613a2055524920717565727920666f72206e6f60008301527f6e6578697374656e7420746f6b656e00000000000000000000000000000000006020830152604082019050919050565b60006124746021836128b1565b91507f4552433732313a20617070726f76616c20746f2063757272656e74206f776e6560008301527f72000000000000000000000000000000000000000000000000000000000000006020830152604082019050919050565b60006124da6031836128b1565b91507f4552433732313a207472616e736665722063616c6c6572206973206e6f74206f60008301527f776e6572206e6f7220617070726f7665640000000000000000000000000000006020830152604082019050919050565b61253c816129f2565b82525050565b600061254e8285611fe0565b915061255a8284611fe0565b91508190509392505050565b600060208201905061257b6000830184611f41565b92915050565b60006080820190506125966000830187611f41565b6125a36020830186611f41565b6125b06040830185612533565b81810360608301526125c28184611f5f565b905095945050505050565b60006040820190506125e26000830185611f41565b6125ef6020830184612533565b9392505050565b600060208201905061260b6000830184611f50565b92915050565b60006020820190506126266000830184611f98565b92915050565b600060208201905081810360008301526126468184611fa7565b905092915050565b6000602082019050818103600083015261266781612011565b9050919050565b6000602082019050818103600083015261268781612077565b9050919050565b600060208201905081810360008301526126a7816120b7565b9050919050565b600060208201905081810360008301526126c78161211d565b9050919050565b600060208201905081810360008301526126e78161215d565b9050919050565b60006020820190508181036000830152612707816121c3565b9050919050565b6000602082019050818103600083015261272781612229565b9050919050565b600060208201905081810360008301526127478161228f565b9050919050565b60006020820190508181036000830152612767816122f5565b9050919050565b6000602082019050818103600083015261278781612335565b9050919050565b600060208201905081810360008301526127a78161239b565b9050919050565b600060208201905081810360008301526127c781612401565b9050919050565b600060208201905081810360008301526127e781612467565b9050919050565b60006020820190508181036000830152612807816124cd565b9050919050565b60006020820190506128236000830184612533565b92915050565b6000604051905081810181811067ffffffffffffffff821117156128505761284f612b9b565b5b8060405250919050565b600067ffffffffffffffff82111561287557612874612b9b565b5b601f19601f8301169050602081019050919050565b600081519050919050565b600081519050919050565b600082825260208201905092915050565b600082825260208201905092915050565b600081905092915050565b60006128d8826129f2565b91506128e3836129f2565b9250827fffffffffffffffffffffffffffffffffffffffffffffffffffffffffffffffff0382111561291857612917612b0e565b5b828201905092915050565b600061292e826129f2565b9150612939836129f2565b92508261294957612948612b3d565b5b828204905092915050565b600061295f826129f2565b915061296a836129f2565b92508282101561297d5761297c612b0e565b5b828203905092915050565b6000612993826129d2565b9050919050565b60008115159050919050565b60007fffffffff0000000000000000000000000000000000000000000000000000000082169050919050565b600073ffffffffffffffffffffffffffffffffffffffff82169050919050565b6000819050919050565b6000612a0782612a0e565b9050919050565b6000612a19826129d2565b9050919050565b82818337600083830152505050565b60005b83811015612a4d578082015181840152602081019050612a32565b83811115612a5c576000848401525b50505050565b60006002820490506001821680612a7a57607f821691505b60208210811415612a8e57612a8d612b6c565b5b50919050565b6000612a9f826129f2565b91507fffffffffffffffffffffffffffffffffffffffffffffffffffffffffffffffff821415612ad257612ad1612b0e565b5b600182019050919050565b6000612ae8826129f2565b9150612af3836129f2565b925082612b0357612b02612b3d565b5b828206905092915050565b7f4e487b7100000000000000000000000000000000000000000000000000000000600052601160045260246000fd5b7f4e487b7100000000000000000000000000000000000000000000000000000000600052601260045260246000fd5b7f4e487b7100000000000000000000000000000000000000000000000000000000600052602260045260246000fd5b7f4e487b7100000000000000000000000000000000000000000000000000000000600052604160045260246000fd5b6000601f19601f8301169050919050565b612be481612988565b8114612bef57600080fd5b50565b612bfb8161299a565b8114612c0657600080fd5b50565b612c12816129a6565b8114612c1d57600080fd5b50565b612c29816129f2565b8114612c3457600080fd5b5056fea26469706673582212207c19895a1e42d62cd6ec0649ff08d74ba378cfc7d4af2171dcf3aa65a8163fbf64736f6c63430008000033",
  "linkReferences": {},
  "deployedLinkReferences": {}
}